:1000000012C01FC01EC01DC01CC01BC04CC019C0E8
:1000100018C017C016C015C014C013C012C011C03C
:1000200010C00FC00EC011241FBECFEDCDBF10E019
:10003000A0E6B0E001C01D92A336B107E1F7A9D058
:1000400020C1DECFD998D898939892989598C29865
:10005000089581E083BF82E089BFD09AD19A8A9ABD
:100060008B9A8D9ABA9AEEDF889A90980895D998CB
:10007000D89A9398929A959AC29A0895D99AD898AC
:10008000939A9298959AC29A0895D998D89A9398E3
:100090009298959AC29A0895D998D8989398929AD6
:1000A000959AC29A08951F920F920FB60F9211243B
:1000B0008F93809162008F5F8093620080916000D7
:1000C0008F5F8093600080916000882329F4809185
:1000D00061008F5F809361008F910F900FBE0F9032
:1000E0001F901895109260001092610010926200AB
:1000F00007C080916100893008F047C0869BF6CF29
:10010000809162008733A8F304C080916100883039
:10011000E0F58699FACF1092620004C080916200E7
:10012000813198F5869BFACF80916200109262002F
:10013000982F9695492F480F880F880F890F04C074
:1001400090916200941708F58699FACF9CE020E020
:1001500030E010926200509162005417E0F3220FD9
:10016000331F869905C00CC050916200851768F056
:100170008699FACF216006C050916200851728F059
:10018000869BFACF915029F702C02FEF3FEFC901AC
:1001900008955FDF7894A6DF2FEF8F3F9207B1F0CD
:1001A0008F73803111F44EDF0FC0813111F45FDFA6
:1001B0000BC0823111F462DF07C0833111F465DFB7
:1001C00003C0843109F468DF909AE5CF9098E3CFBB
:1001D0009C0140E050E064E0220F331F441F551F94
:1001E0006A95D1F760E079E08DE390E028D0DA01FC
:1001F000C9010197A109B109892F9A2FAB2FBB27FC
:1002000082B9215029B988E98AB986E083B908956D
:100210005D9BFECF8CB90895EF92FF92CF93DF9351
:10022000E82EE7017E01F92EE70101C0F1DF899197
:100230008823E1F7DF91CF91FF90EF900895A1E23D
:100240001A2EAA1BBB1BFD010DC0AA1FBB1FEE1F50
:10025000FF1FA217B307E407F50720F0A21BB30B9B
:10026000E40BF50B661F771F881F991F1A9469F717
:1002700060957095809590959B01AC01BD01CF0173
:060280000895F894FFCF81
:00000001FF
