:1000000012C02AC029C028C027C026C0C3C024C02F
:1000100023C022C021C020C01FC01EC01DC01CC0E4
:100020001BC01AC019C011241FBECFEDCDBF10E0F8
:10003000A0E6B0E0ECE7F4E002C005900D92A03835
:10004000B107D9F710E0A0E8B0E001C01D92AB38CD
:10005000B107E1F756D110C2D3CFD898D998939869
:1000600092989598C298089581E083BF82E089BFF5
:10007000D19AD09A8A9A8B9A8D9ABA9AEEDF889AF8
:1000800090980895D898D99A9398929A959AC29AE6
:100090000895D89AD998939A9298959AC29A089561
:1000A000D898D99A93989298959AC29A0895D89880
:1000B000D9989398929A959AC29A0895D898D99A6D
:1000C000939A9298959AC29A0895D89AD9989398A3
:1000D000929A959AC29A08958C31910509F44EC06E
:1000E0008D319105CCF48330910509F43FC0843003
:1000F000910544F48130910549F18230910509F070
:1001000048C032C085309105A9F18530910584F150
:1001100089309105F1F534C08533910529F1863395
:10012000910554F48233910519F18433910511F14D
:100130008932910571F51AC087339105B9F087337B
:10014000910524F08A33910521F516C086DF1092BF
:100150008300109282001092870010928600109205
:1001600085001092840008958DDF089592DF089530
:1001700097DF08959CDF0895A1DF0895A6DF089515
:1001800080918200909183000996909383008093E0
:10019000820008951F920F920FB60F9211248F9331
:1001A00080918A008F5F80938A00809188008F5FA2
:1001B0008093880080918800882329F480918900A9
:1001C0008F5F809389008F910F900FBE0F901F90CB
:1001D00018951092880010928900E0918000F091AB
:1001E0008100EE0FFF1FE05AFF4F10928A000FC0F0
:1001F00080918900893008F080C080B390E0008051
:1002000002C0959587950A94E2F780FFEECF809122
:100210008A00873368F3E0918000F0918100EE0F4F
:10022000FF1FE05AFF4F81E090E0008002C0880F7E
:10023000991F0A94E2F705C020918900283008F040
:100240005CC020B330E02823392321153105A1F704
:1002500010928A0005C020918A00213108F04DC01B
:1002600020B330E02823392321153105A1F3609113
:100270008A0010928A00262F2695E22FE60F660F3D
:10028000660F620F04C020918A002E17B0F520B3CC
:1002900030E02823392321153105A9F770E020E04B
:1002A00030E010928A0040918A004E17E0F3220F4E
:1002B000331F40B350E0482359234115510529F419
:1002C00011C040918A006417C0F040B350E0482349
:1002D000592341155105A9F721600BC040918A00AF
:1002E000641758F040B350E0482359234115510595
:1002F000A9F37F5F7C30A9F602C02FEF3FEFC90161
:100300000895CF93DF93B0DE7894C0E0D0E061DF52
:100310002FEF8F3F920781F09C01E6E036952795FD
:10032000EA95E1F72F71223011F0222319F48F732F
:1003300090E0D2DE909AE9CFC536D10514F421962B
:1003400007C08BDE1092830010928200C0E0D0E0E4
:1003500090988091820090918300853B9105BCF23A
:10036000E0918400F0918500EE0FFF1FEC59FF4FE4
:10037000808191818130910511F46FDE01C0ACDE86
:1003800080918600909187000196909387008093DA
:100390008600833091050CF4BACF1092870010923A
:1003A000860080918400909185000196909385004D
:1003B000809384008E3091050CF4A9CF10928500B3
:1003C00010928400A4CF9C0140E050E064E0220F32
:1003D000331F441F551F6A95D1F760E079E08DE324
:1003E00090E028D0DA01C9010197A109B109892F4C
:1003F0009A2FAB2FBB2782B9215029B988E98AB936
:1004000086E083B908955D9BFECF8CB90895EF9285
:10041000FF92CF93DF93E82EE7017E01F92EE701EB
:1004200001C0F1DF89918823E1F7DF91CF91FF903F
:10043000EF900895A1E21A2EAA1BBB1BFD010DC06F
:10044000AA1FBB1FEE1FFF1FA217B307E407F50784
:1004500020F0A21BB30BE40BF50B661F771F881F60
:10046000991F1A9469F760957095809590959B01F6
:0C047000AC01BD01CF010895F894FFCF4E
:10047C00060003003A003A0001001C001C000100B9
:10048C003A0001001C0001000400010005000100FD
:00000001FF
